:040000006F50B01479
:1000040000000000000000004258000046580000B4
:10001400000000004859000000000000000000003B
:10002400485900004859000000000000000000008A
:1000340012CF0000000000000002000000000000D9
:100044004859000048590000485900004859000028
:100054004859000048590000A24B00004E4C0000D3
:10006400FA4C0000A64D0000524E00004859000012
:1000740048590000485900004859000048590000F8
:1000840048590000485900004859000048590000E8
:10009400485900004859000048590000FE4E00002D
:1000A400485900002A5100004859000048590000EE
:1000B400E2510000925200004A53000048590000E7
:1000C40048590000485900004859000048590000A8
:1000D4004859000010450000CC4500008846000047
:1000E4000E500000485900004859000048590000CB
:1000F40022560000485900004859000048590000A1
:1001040048590000485900000254000048590000B2
:100114004447000000480000BA5400006A5500003B
:100124004859000048590000485900004859000047
:100134004859000048590000485900004859000037
:100144004859000048590000485900009E690000C1
:100154004859000048590000E84A0000B848000027
:1001640074490000344A000048590000DA5600007F
:1001740048590000485900004859000092570000AF
:1001840048590000485900004859000048590000E7
:1001940048590000485900004859000048590000D7
:1001A400000000000000000000000000000000004B
:0C01B4000000000000000000000000003F
:10020000130181F806C216C41AC61EC822CA26CC1B
:100210002ACE2ED032D236D43AD63ED842DA46DC76
:100220004ADECEC0D2C2D6C4DAC6DEC8E2CAE6CC46
:10023000EACEEED0F2D2F6D4FAD6FED8F3220030CF
:1002400096DA83A281A323A02200F32510342EC0C6
:100250009305000273A0458003A10189EFD0102D02
:1002600003A381A303210300824273901234D65268
:10027000739002309240A2423243C2435244E2445D
:10028000724582551256A2563257C2575258E258FA
:1002900072598649164AA64A364BC64B564CE64C0E
:1002A000764D865D165EA65E365FC65F13018107DA
:1002B0007300203013000000130000001300000042
:1002C00013000000130000001300000013000000E2
:1002D00013000000130000001300000013000000D2
:1002E00013000000130000001300000013000000C2
:1002F00013000000130000001300000013000000B2
:1003000083A20189938202E07390023403A181A346
:10031000024182403243C2435244E2447245825514
:100320001256A2563257C2575258E258725986494D
:10033000164AA64A364BC64B564CE64C764D865D61
:10034000165EA65E365FC65FD652A102739002307B
:10035000A2421301810782801300000013000000F5
:100360001300000013000000130000001300000041
:100370001300000013000000130000001300000031
:100380001300000013000000130000001300000021
:100390001300000013000000130000001300000011
:1003A0001300000013000000130000001300000001
:1003B00013000000130000001300000013000000F1
:1003C00013000000130000001300000013000000E1
:1003D00013000000130000001300000013000000D1
:1003E00013000000130000001300000013000000C1
:1003F00013000000130000001300000013000000B1
:10040000F322003093F272FF130380781203B3E2F9
:100410006200711523205500130585FA10C12115BE
:10042000232005009302000063870200711523203A
:100430000500FD12D5BF71150CC1828000000000BF
:1004400000000000000000000000000000000000AC
:10045000000000000000000000000000000000009C
:10046000000000000000000000000000000000008C
:10047000000000000000000000000000000000007C
:10048000000000000000000000000000000000006C
:10049000000000000000000000000000000000005C
:1004A000000000000000000000000000000000004C
:1004B000000000000000000000000000000000003C
:1004C000000000000000000000000000000000002C
:1004D000000000000000000000000000000000001C
:1004E0000000000000003D432A876373C302937736
:1004F000F700BDEFADE5937606FF3D8ABA960CC3D3
:100500004CC30CC74CC74107E36BD7FE11E2828096
:10051000B306C3408A069702000096966780A6003D
:100520002307B700A306B7002306B700A305B7004B
:100530002305B700A304B7002304B700A303B70043
:100540002303B700A302B7002302B700A301B7003B
:100550002301B700A300B7002300B700828093F502
:10056000F50F93968500D58D93960501D58D61B7CE
:10057000939627009702000096968682E78086FA77
:100580009680C1171D8F3E96E374C3F8A5B741113D
:1005900006C622C426C29357C50093F4F7001397EA
:1005A00024009387C187BA9780439355850091466D
:1005B0000546BD892285EF50405185452285EF5083
:1005C000004F89452285EF50E05B65DD6844B71731
:1005D000002093878787A69783C707003355F500C8
:1005E00042054181B240224492444101828001117E
:1005F00006CE22CC26CA4AC84EC6AA892E89130620
:100600000005B75501009385C5B84A85EF3060668F
:1006100063070902814401444E85953FAA9405046D
:100620001374F40FE31A89FE33D524034205418184
:10063000F2406244D2444249B24905618280814419
:10064000E5B7797106D622D426D24AD02E8902C0C7
:1006500002C202C402C602C802CA02CC02CE93542D
:10066000C500BD888146014681451375F50FEF0031
:10067000900CC9C085476385F4083165EF50F005DB
:10068000939724001387C187BA9780432285EF5040
:10069000A03402C002C202C4B7070E003EC602C8A0
:1006A0008547230AF1008A852285EF50403785452A
:1006B0002285EF50403C81452285EF50404D2285F8
:1006C000EF50A03C2285EF50E03C6DFD2285EF50BD
:1006D000E03C2285EF50203D6DFDB7170020938749
:1006E0008787BE9423802401B25022549254025929
:1006F00045618280854513050020EF501017B5BF76
:10070000854513050040EF50501685BFB7F700E050
:10071000D843799BD8C303A781838966938606F45F
:100720003357D702B336A7023306A70290CBD4CBF8
:1007300098431367070198C398431367170298C338
:1007400037F700E05C43858BF5DF37F700E01C43AB
:10075000F99B1CC38280011106CE22CC26CA4AC84E
:100760004EC652C456C25AC02E8BB28A368ABA8935
:100770003E89C28446849306800401468145EF0089
:10078000807B93068004014681455A85EF00A07A5C
:1007900093068004014681455685EF00C079930693
:1007A0008004014681455285EF00E078930680047D
:1007B000014681454E85EF0000789306800401468E
:1007C00081454A85EF0020779306800401468145E4
:1007D0002685EF00407693068004014681452285F8
:1007E000EF00607593068004014681450345410290
:1007F000EF006074930680040146814503450102C1
:10080000EF00607393068004014681450345810231
:10081000EF006072F2406244D2444249B249224A37
:10082000924A024B05618280011106CE22CC26CA73
:100830004AC84EC6AA842E843289B6898545096580
:10084000EF50D000B707055003C707001377F70C28
:100850002380E70003C70700136727042380E7000E
:1008600003C717001377970FA380E7002392370180
:100870002393270184C7C0C703C717001377F70363
:10088000A380E70003C717001377F70FA380E700E3
:1008900003C72700136747002381E70003C717003A
:1008A00013671700A380E70003C70700136717004B
:1008B0002380E7008D4513056005EF30B020130558
:1008C0006005EF30F01CF2406244D2444249B24924
:1008D00005618280411106C622C4A54763E3A70AC9
:1008E0009317250055671307C7BEBA979C438287A5
:1008F000B737014003D447C242044184B707002000
:1009000093870700AA9783C7070093F7F70F13078A
:10091000F00F639AE7062285B240224441018280AB
:10092000B707004003D4470242044184C1BFB70760
:10093000004003D4474242044184C9B7B71700407E
:1009400003D447824204418455BFB717004003D403
:1009500047C2420441845DB7B737014003D44742E0
:100960004204418461BFB757014003D447C24204E7
:10097000418469B7B757014003D447024204418418
:10098000B5BF0144A5BFB7070020938707003E9578
:1009900003450500BD2B41F13304804042044184EE
:1009A0009DBFA54763E0A7060A05D567938747C1A2
:1009B0003E951C418287B7370140239207C282804F
:1009C000B7070040239207028280B70700402392B6
:1009D00007428280B7170040239207828280B717B0
:1009E0000040239207C28280B7370140239207421A
:1009F0008280B7570140239207C28280B7570140D7
:100A0000239207028280797106D622D426D24AD058
:100A10004ECE52CC2A84AE84328A9145EF10802685
:100A20001306000837590100930549C6EF306024CA
:100A300013D5C400018D13061008930549C613355C
:100A40001500EF3000231355CA00018D130620084E
:100A5000930549C613351500EF30A0212285EF100C
:100A6000C024930680040146814513F5F40FE1216B
:100A700093068004014681451375FA0F6D29A54739
:100A800063EF87040A04D5679387C7C33E941C406D
:100A90008287B7090040014491A8B70900409389B3
:100AA00009400144A1A0B71900409389098001447D
:100AB00035A8B7190040938909C0014405A8B73982
:100AC000014093890940014415A0B7590140938919
:100AD00009C0014421A8B7590140014401A80544B7
:100AE00031A0B7390140938909C0014493D58400EE
:100AF0008D476389F504C5476386F5069307200291
:100B0000638AF50693073002638EF5069307100398
:100B10006382F508930710076383F508930730088D
:100B20006386F508930710096389F5089307300970
:100B30006391F50285453705158013050504EF50CF
:100B4000E02A01A88545370516001305050CEF506E
:100B5000E02925CCB250225492540259F249624AFB
:100B60004561828085453705180013050510EF5053
:100B7000E027C5B7854537151A0013050580EF50E6
:100B8000E026C1BF854537151A00130505C0EF5093
:100B9000E025C1B785450565EF5040255DBF85451A
:100BA000370500801105EF50602465B7854537058E
:100BB00013804105EF50802369BF854537051580B7
:100BC00013050502EF50802269B785450545EF50B2
:100BD000C04902C202C4231601004800EF50101D94
:100BE00023120100FD572314F100231501002313E4
:100BF0000100230601004C004E85EF50805C9305F8
:100C000000064E85EF50302085454E85EF50901BF5
:100C10008146014689454E85EF50F02085454E8539
:100C2000EF50501A05BF411106C622C426C24AC061
:100C30002A84AE841306800337590100930589CCBA
:100C400013350504EF30E00213069003930589CCB9
:100C500013B54400EF30E001A166A2968A06A6967D
:100C60001394A600EF302069AA84EF20501B37159B
:100C70002707130505E0EF20B01E1840B7E739E35A
:100C8000938797336312F702930744009306044057
:100C900037E639E31306963398436319C700910783
:100CA000E39CD7FE014421A0054411A00544EF2098
:100CB000101703A58183EF20B01A2685EF3040611D
:100CC0002285B2402244924402494101828041116E
:100CD00006C622C426C24AC02A84AE841306F00582
:100CE00037590100930589CC13350504EF2070783E
:100CF00013060006930589CC13B54400EF207077E6
:100D0000EF30605F2A89EF20901137152707130510
:100D100005E0EF20F014EF40B06B13054003EF4007
:100D2000B06D216522950A0526952A05EF4050737E
:100D3000370400201304047E08C013050002EF40AE
:100D4000B06BEF40906A0040EF20700D03A58183E7
:100D5000EF2010114A85EF30A0571305C4FF33353B
:100D6000A000B24022449244024941018280011114
:100D700006CE22CC26CA4AC84EC652C4AA842E8A9F
:100D80003289368413067008B7590100938589CCDF
:100D900013350504EF20F06D13068008938589CC88
:100DA00013354A00EF20F06C13069008938589CC28
:100DB00013351410EF20F06B216626960A06529622
:100DC0009314A600EF302053AA89EF205005371561
:100DD0002707130505E0EF20B0081DC01307F4FF37
:100DE0004207418305070A074A97CA873386244189
:100DF000B386C7009107944223AED7FEE39AE7FE7D
:100E0000EF20F00103A58183EF2090054E85EF30A0
:100E1000204CF2406244D2444249B249224A056120
:100E20008280011106CE22CC26CA4AC84EC652C4C0
:100E300056C22A84AE84328AB68A1306A00A37596B
:100E40000100930589CC13350504EF209062130649
:100E5000B00A930589CC13B54400EF2090611306C6
:100E6000C00A930589CC13B51A10EF209060A167D2
:100E7000A2978A07A6971399A700A68522856533AE
:100E800029EDEF304047AA89EF2060793715270711
:100E9000130505E0EF20C07CEF4090539387FAFFE5
:100EA000C207C183638F0A02850793942700D294F7
:100EB000528433094941114A330524011104832521
:100EC000C4FFEF40705E9387418088C39C43639C5E
:100ED0004701E31394FE014401A8A6852285C53B82
:100EE0004DB7014411A00544EF403050EF2020736E
:100EF00003A58183EF20C0764E85EF30603D2285CB
:100F0000F2406244D2444249B249224A924A0561BF
:100F10008280135735009376C701370700201307E7
:100F2000C70036971C43984785473395A700798DAE
:100F30003335A0008280797106D622D426D24AD0D9
:100F40004ECE52CC2E89328AB68902C202C402C663
:100F5000935455009D881374F5019DC085476383A4
:100F6000F40689476385F4068D476387F406914745
:100F7000639CF400854513050004EF50000F29A081
:100F800085451145EF50600E854733948700420434
:100F90004180231281006307F90493F6F90F36C6E6
:100FA0008A04B70700209387C700BE944C0088408E
:100FB000EF409056B250225492540259F249624A7C
:100FC0004561828085452145EF50200A75BF8545E2
:100FD0004145EF5080094DBF854513050002EF5094
:100FE000C0085DB793970901C183A18395E78D4739
:100FF0003EC493F6F90F36C68A04B70700209387DC
:10100000C700BE944C008840EF4010515286A28524
:101010008840EF40105D79BF3EC4E1BF411106C674
:1010200022C426C2AA842E8413065003B755010099
:10103000938585D70965130515713335A400EF2015
:10104000504393D70401BD8B2547636CF7068A078D
:101050005567130787D2BA979C438287B70700402A
:1010600003D7C7023304E402096713070771335437
:10107000E40242044180A1808D88A9E8239A870276
:10108000B2402244924441018280B70700409387D6
:101090000740F9B7B717004093870780D1B7B71754
:1010A0000040938707C06DBFB73701409387074063
:1010B00045BFB7570140938707C05DB7B757014099
:1010C00045B7B7370140938707C059BF05476388C5
:1010D000E40009476388E4002390870455B7239C04
:1010E000870279BF239E870261BF397106DE22DC49
:1010F00026DA4AD84ED652D42A892E8AB2899354F7
:1011000005018D452685EF00F0371306D00A3754C8
:101110000100930584D7EF20D0351306F00A93051C
:1011200084D709651305157133B5A900EF20703414
:1011300002CA02CC231E010002C202C402C602C8B7
:10114000BD882685EF0070369306803101468545BF
:101150001375F90FCD3385450545EF401071A5474F
:1011600063E9970A8A04D567938707D5BE949C40A4
:101170008287B70400409357C9000D476380E70A90
:1011800045476386E7144947638BE7144D476380FF
:10119000E716130720026384E716130730026388FB
:1011A000E71613071003638CE71613071007638D08
:1011B000E716130730086380E718130710096383E5
:1011C000E718130730096392E70685453705158050
:1011D00013050504EF40904189A8B70400409384AB
:1011E000044051BFB71400409384048069B7B7141A
:1011F0000040938404C041B7B73401409384044055
:101200009DBFB7540140938404C0B5B7B7540140A3
:101210009DB7B7340140938404C0B1BF85453705FD
:1012200016001305050CEF40703C03A48183B357EF
:101230004403C18393851700B38545033354B40237
:101240001307F4FF231CE100231AF100231D010002
:10125000231B0100230E01004C082685EF40707609
:10126000930700072312F10085472313F10023148D
:101270000100420441803304340389679387077176
:101280003354F4022315810089472316F1002317F4
:10129000F100231801002319010013598900137963
:1012A00039006309090A85476302F90E8947630D0E
:1012B000F90E4C002685EF50E024A1452685EF501D
:1012C000C03E930500402685EF50A04345A08545CC
:1012D0003705180013050510EF405031B9B78545A3
:1012E0003705180013050520EF4050303DBF8545F8
:1012F0003705180013050530EF40502F3DB78545E1
:1013000037151A0013050580EF40502E39BF85456B
:1013100037151A00130505C0EF40502D39B7854524
:101320000565EF40B02C11B78545370500801105E4
:10133000EF40D02BDDBD8545370513804105EF40DB
:10134000F02AE5B585453705158013050502EF4000
:10135000F029E1BD4C002685EF407075A14526853A
:10136000EF50C03091452685EF50C0358545268524
:10137000EF50802785452685EF50C024F2506254F7
:10138000D2544259B259225A216182804C0026859A
:10139000EF40707CA1452685EF50602E93050040FC
:1013A0002685EF504033D9B74C002685EF502008F2
:1013B000A1452685EF50402E91452685EF504033BC
:1013C00075B7411106C622C42A8413061004B75506
:1013D0000100938585DD3335A000EF2090091C4086
:1013E00013D757000A07370600201306C6003297A6
:1013F0001443BD8B0547B317F7009CCA544093D7DD
:1014000056008A07B2979C43BD8A3317D70098CB02
:101410005C447D57FD17E39FE7FE58409357570004
:101420008A07B70600209386C600B69794433D8B83
:1014300085473397E700D8CA5C447D57FD17E39F83
:10144000E7FE1840935757008A07B7060020938697
:10145000C600B69794433D8B85473397E700D8CABB
:10146000B240224441018280411106C622C42A842E
:1014700013064005B7550100938585DD3335A0007F
:10148000EF20207F5C4013D757000A073706002063
:101490001306C60032971443BD8B0547B317F700F8
:1014A000DCCA144093D756008A07B2979C43BD8A82
:1014B0003317D700D8CB5C447D57FD17E39FE7FE79
:1014C0001840935757008A07B70600209386C60036
:1014D000B69794433D8B85473397E70098CA5C44A1
:1014E0007D57FD17E39FE7FE5840935757008A0743
:1014F000B70600209386C600B69794433D8B854778
:101500003397E70098CA5C447D57FD17E39FE7FED9
:10151000B240224441018280411106C622C426C243
:101520004AC02A84AE843339A0001306700AB75526
:101530000100938585DD4A85EF20A07321481305BE
:101540000008370600201306C60085457D5799A878
:101550005C4093D657008A06B2969442BD8BB397EF
:10156000F500DCCA05815C44FD17E39FE7FE1C40E3
:1015700093D657008A06B2969442BD8BB397F50076
:101580009CCA5C44FD17E39FE7FE1C4093D65700BE
:101590008A06B2969442BD8BB397F500DCCA7D18DB
:1015A00063000802B3779500C5D75C4093D6570017
:1015B0008A06B2969442BD8BB397F5009CCA5DB77C
:1015C00013065008B7550100938585DD4A85EF2045
:1015D000406A1C4013D757000A073706002013063D
:1015E000C60032971443BD8B0547B317F700DCCA1A
:1015F000544093D756008A07B2979C43BD8A33174D
:10160000D70098CB5C447D57FD17E39FE7FE184059
:10161000935757008A07B70600209386C600B697EF
:1016200094433D8B85473397E70098CA5C447D57C8
:10163000FD17E39FE7FE4840EFF0BF8D184093573A
:1016400057008A07B70600209386C600B6979443D2
:101650003D8B85473397E700D8CA5C447D57FD171B
:10166000E39FE7FE13351500B2402244924402493D
:1016700041018280797106D622D426D24AD04ECE3C
:1016800052CC56CA5AC85EC6AA84AE8B333BA00061
:101690001306000CB7550100938585DD5A85EF20B0
:1016A000405D9840935757008A07B70600209386FD
:1016B000C600B69794433D8B85473397E700D8CA59
:1016C000DC447D57FD17E39FE7FED8409357570052
:1016D0008A07B70600209386C600B69794433D8BD1
:1016E00085473397E70098CAA1490149370A002086
:1016F000130ACA00854A7D549C4013D757000A0735
:1017000052971843BD8BB397FA005CCBDC44FD17AE
:10171000E39F87FE9C4013D757000A075297184350
:10172000BD8BB397FA001CCBDC44FD17E39F87FE0B
:10173000C840EFF00FFE06093369A9001379F90FCD
:10174000FD1993F9F90FE39909FA98409357570057
:101750008A07B70600209386C600B69794433D8B50
:1017600085473397E700D8CADC447D57FD17E39FD0
:10177000E7FE13069006B7550100938585DD5A856F
:10178000EF20204F9840935757008A07B706002054
:101790009386C600B69794433D8B85473397E70001
:1017A000D8CA638F0B08D840935757008A07B706EB
:1017B00000209386C600B69794433D8B85473397A8
:1017C000E70098CADC447D57FD17E39FE7FE984089
:1017D000935757008A07B70600209386C600B6972E
:1017E00094433D8B85473397E70098CADC447D5787
:1017F000FD17E39FE7FE9C4013D757000A07370603
:1018000000201306C60032971443BD8B0547B3175B
:10181000F700DCCAD44093D756008A07B2979C439E
:10182000BD8A3317D70098CB4A85B25022549254C0
:101830000259F249624AD24A424BB24B4561828018
:10184000D840935757008A07B70600209386C600F2
:10185000B69794433D8B85473397E700D8CA9DB729
:10186000411106C622C426C24AC02A842E89B284E7
:101870001306B028B7550100938585DD3335A000E8
:10188000EF20203F2285353E83458400860593F571
:10189000E50F22855131CA852285BD39A68522856D
:1018A000A5392285D136B2402244924402494101F1
:1018B0008280411106C622C426C22A84AE84130641
:1018C000D029B7550100938585DD3335A000EF2081
:1018D000403A2285FD3483458400860593F5E50F63
:1018E00022851D39A685228505392285B53E2285AA
:1018F000C93C83458400860593E5150093F5F50FF3
:101900002285193985452285B533AA842285A93EC9
:101910002685B2402244924441018280011106CEC4
:1019200022CC26CA4AC84EC652C456C22A84AE8A9F
:10193000328A3689BA841306802BB7590100938501
:1019400089DD3335A000EF20C032330599401306FE
:10195000902B938589DD3335A000EF208031232043
:10196000240144C02304540123264401C1460546F2
:1019700085454A85EFF02FDCD1460546854526850D
:10198000EFF06FDBF2406244D2444249B249224A4E
:10199000924A056182800A05D5679387C7E3AA97B3
:1019A00098432316B7008357870093F70708E5FF8E
:1019B0008357C700828093D685000A05D567938731
:1019C000C7E3AA9798432316D7008357870093F756
:1019D0000708E5FF93F5F50F2316B7008357870037
:1019E00093F70708E5FF82800A05D5679387C7E369
:1019F000AA9798432316B7008357870093F70708E1
:101A0000E5FF8357C700420641822316C70083576C
:101A1000870093F70708E5FF8357C70082800A0510
:101A2000D5679387C7E3AA9798432316B7008357D0
:101A3000870093F70708E5FF8357C70089472316F8
:101A4000F7008357870093F70708E5FF0355C700A2
:101A50001375F50F82800A05D5679387C7E3AA97A8
:101A600098432316B7008357870093F70708E5FFCD
:101A70008357C70085C2B296231607008357870095
:101A800093F70708E5FF8357C7000506A30FF6FE87
:101A9000E394C6FE82805D7186C6A2C4A6C2CAC097
:101AA0004EDE52DC56DA5AD85ED62A842E89B289A6
:101AB000368ABA8B3E8BC28A13172500D567938767
:101AC000C7E3BA9784432685EF40A0618545054565
:101AD000EF40A059930730126306FA108967938785
:101AE000A714630AFA106303041285476305F4120E
:101AF00089476307F41293068031054685451375BF
:101B0000FA0FEFF04FC3930680310546854513F574
:101B1000FB0FEFF04FC2C167F9176318FB10930773
:101B2000F00F639DFA1002C602C802CA02CC231E3F
:101B30000100930740102317F1008947630CF91047
:101B40008D47630DF91085476303F91003A6818360
:101B5000B3573603C207C1833376360301E6FD1758
:101B6000C207C1839306F0071307800363EEF602F2
:101B70009306F0031307000363E8F602FD4613071C
:101B8000800263E3F602BD461307000263EEF6002F
:101B90009D46614763EAF6008D46414763E6F600DD
:101BA0008546214763F3F60C231CE10093070020D0
:101BB000231BF100231D01009D47231EF1006C0033
:101BC0002685EF40005885452685EF40205DB640CC
:101BD000264496440649F259625AD25A425BB25B95
:101BE0006161828093075012E39FFBEE85450545B6
:101BF000EF40C01FCDBD89679387C714E395FBEE07
:101C0000854537152000EF40601EF1BD854505650F
:101C1000EF40A045CDB585451165EF40E046E1BDFB
:101C200085452165EF404046F9B593068034054669
:101C300081451375FB0FEFF00FB0D5B5930600315A
:101C40000146854513F5FA0FEFF0EFAEE9BD231A13
:101C5000F100EDBD89472319F100CDBD8947231956
:101C6000F1008547231AF100D5B5014795FF13060A
:101C70007021B7550100938585E40145EF10707F11
:101C800001471DB713172500938781A9BA979C4375
:101C900081EB3A85138781A93A950CC1054582806D
:101CA0003385B740133515008280411106C631C116
:101CB00085476309F5048947630BF5048D47630D78
:101CC000F5049147630FF50495476301F5069947BD
:101CD0006303F5069D476306F506A1476308F5060D
:101CE000A547631EF500854537051000EF40E03736
:101CF00039A08545056513050580EF400037B240E2
:101D00004101828085450545EF400038CDBF8545BE
:101D10000945EF406037E5B785451145EF40C036CE
:101D2000F9BF85452145EF402036D1BF8545414566
:101D3000EF408035E9B7854513050002EF40C03418
:101D40007DBF85450965EF40403255BF8545370564
:101D50000800EF40803165B70A05D567938787EAA9
:101D6000AA9798438357070093F70708E5DFC20552
:101D7000C1812312B7008280411106C622C426C247
:101D80004AC02A892E84B28413061004B755010074
:101D9000938585EC33358000EF10B06D89C8A2942F
:101DA00005048345F4FF4A85453FE39B84FEB2402A
:101DB00022449244024941018280411106C622C454
:101DC00026C2AA842E8413060005B7550100938508
:101DD00085EC33358000EF10D0698305040089C994
:101DE000050493F5F50F2685853F83050400EDF97D
:101DF000B2402244924441018280411106C622C46D
:101E000026C22A84AE8413172500D567938787EAF4
:101E1000BA972E86930550528843EF40502413857D
:101E2000418822950344050081452285EF208049A1
:101E300089C82285EF20C045B24022449244410126
:101E400082802285EF206046C5BF0A05D56793874B
:101E500087EAAA9798438357070093F7070299E305
:101E600001458280835747002380F5000545828025
:101E7000797106D622D426D24AD04ECE52CC56CA3A
:101E8000AA84AE893284368A3345D6009397C4003B
:101E90007D8D1306A00AB75A010093858AEC13358D
:101EA0001500EF10105D1359840013558A00330597
:101EB00025411306B00A93858AEC13351500EF10FF
:101EC000505BE146014685451375F40FEFF0AF8690
:101ED00093068004014681451375FA0FEFF0AF8534
:101EE00085450545EF4060181316040141828D6752
:101EF000938707386309F6228D679387073863F263
:101F0000C70695679387A7386305F6289567938773
:101F1000A73863F5C70E99679387C738630DF6280E
:101F200099679387C73863FCC7109D679387E7104D
:101F30006305F62A9D679387E738631AF604370727
:101F400001405C4FB70600FDFD16F58F5CCF544F86
:101F50009317890137090003B3F72701D58F5CCFA9
:101F60003DA08567938757166308F61685679387A4
:101F7000571663EBC7049307F0226309F610930723
:101F800060306306F612930760126301F60E6388F1
:101F9000042685476388F42A8947638BF42A8D4792
:101FA000638EF42A91476381F42C95476384F42C63
:101FB00099476387F42C9D476397F424854513055F
:101FC0000010EF40600C81A4896793878736630F08
:101FD000F6108D67938707126305F612896793875A
:101FE000A714E316F6FAB7070140D8431377F7FCB6
:101FF000D8C3D84313670701D8C351BF91679387EC
:1020000087386304F6149567938787126301F61681
:10201000916793874712E31CF6F6370701405C4F40
:10202000B706F4FFFD16F58F5CCF544F93172901C7
:1020300037090C00B3F72701D58F5CCF89BF9967AB
:1020400093876710E315F6F4370701405C4FB70636
:1020500040FFFD16F58F5CCF544F93176901370988
:10206000C000B3F72701D58F5CCF15B7B707014084
:10207000D84FB70600FCFD16758FD8CFD8436D9B9F
:10208000D8C3D84313674700D8C311B7B707014077
:10209000D84FB70600FCFD16758FD8CFD84FB706BE
:1020A0000004558FD8CFD8436D9BD8C3CDB5B707A3
:1020B0000140D84FB70600FCFD16758FD8CFD84F1A
:1020C000B7060004558FD8CFD8436D9BD8C3D843EB
:1020D00013674700D8C365BDB7070140D8435D9B70
:1020E000D8C3D84313678700D8C355B5B707014095
:1020F000D8431377F7FCD8C3D84313670703D8C373
:1021000079B5370701405C4FB706FDFFFD16F58F27
:102110005CCF544F9317090137090300B3F7270128
:10212000D58F5CCFADB5370701405C4FB706FDFFDB
:10213000FD16F58F5CCF544F931709013709030043
:10214000B3F72701D58F5CCF99B5370701405C4FB6
:10215000B706F4FFFD16F58F5CCF544F9317290196
:1021600037090C00B3F72701D58F5CCF0DB53707C2
:1021700001405C4FB706D0FFFD16F58F5CCF544F82
:102180009317490137093000B3F72701D58F5CCF8A
:10219000FDBB370701405C4FB706D0FFFD16F58F3A
:1021A0005CCF544F9317490137093000B3F727012B
:1021B000D58F5CCFE9BB370701405C4FB70640FFC6
:1021C000FD16F58F5CCF544F931769013709C00096
:1021D000B3F72701D58F5CCF5DBB370701405C4F5C
:1021E000B70600FDFD16F58F5CCF544F931789019C
:1021F00037090003B3F72701D58F5CCF49BB85456D
:102200001165EF30906602C202C402C64EC0B147EB
:102210002315F10013952400D567938787EA3E952F
:1022200000418A852285EF40005285452285EF4096
:102230000061B250225492540259F249624AD24A81
:1022400045618280854537050200EF30F06365BF48
:10225000854537050400EF30306375B78545370590
:102260000800EF30706245B7854537051000EF3044
:10227000B06151BF854513050004EF30F06061B7D0
:10228000854513050008EF303060B5BF411106C623
:10229000A146371600201306C6878145138501AC79
:1022A000EF101061B24041018280411106C622C484
:1022B00026C2370400201304C4001C4493040040C9
:1022C000C4CB2E86AA850945EFF00FF21C4484CBBF
:1022D000B2402244924441018280011106CE22CCB8
:1022E00026CA370400201304C4001C449304004091
:1022F000C4CB994630009305300C0945EFF0AFF59B
:102300001C4484CB83478100A20703479100D98FE7
:10231000371700202312F7888347A100A20703473D
:10232000B100D98F371700202313F7888347C100E6
:10233000A2070347D100D98F371700202314F7884D
:10234000F2406244D24405618280011106CE22CC63
:1023500026CA4AC84EC652C42945EFE02FBB13080F
:10236000F00F8966938746021387560293863602DA
:10237000379698001306066881450945EFF0AFF1DE
:10238000C146054685451305A004EFE0DFBA1304F6
:102390000010B70400209384C40013090040494A88
:1023A0009C4423AA27019305500F0945EFF02FE71E
:1023B000AA899C4423A827012945EFE02FB5638112
:1023C00049097D144204418061FC9306B00E3756E2
:1023D0000100130606F3B75501009385C5FA0145C0
:1023E000EF1050110545F2406244D2444249B249CF
:1023F000224A0561828085451305B0067D358145F9
:102400001305C0065D358545694545359D456545DE
:10241000693DA1457145513D13848180B757010045
:1024200087A787F21CE0E1456D454135B7570100AC
:1024300087A7C7F25CE08D457545853D014565B7C9
:10244000930500081305B0068D350945EFE00FAC84
:10245000370400201304C4001C4493040040C4CB80
:102460009305B00E0945EFF08FDB1C4484CB1304B9
:10247000001093091004B70400209384C4001309CA
:102480000040E30A35F79C4423AA27019305B00EC8
:102490000945EFF0CFD89C4423A827017D144204BE
:1024A000418065F09306B00F37560100130606F31E
:1024B000B7550100938545F90145EF10B003054577
:1024C0001DB7B717002083A70789B9C7B707002032
:1024D0001386C700544293070008DCCA89679CCA68
:1024E000B727014003A7C780137707F0498F23A6BA
:1024F000E78003A74182935757008A07B2978C431E
:102500001376F70005473317C700D8C92166D0CA2C
:1025100090CA9C4398CB8280011106CE22CC26CA59
:102520004AC84EC6AA85138941828327090013D75A
:1025300057000A07370400201304C40022971443ED
:10254000BD8B8544B397F4009CCA18435CCB5C44B4
:102550009309000823AA37010545EFF0CFC35C4477
:1025600023A8370103270900935757008A07A2972A
:1025700094433D8BB394E40084CA9C43C4CBF240A3
:102580006244D2444249B24905618280B7170020B3
:1025900083A7078991EB411106C6AA850545EFF08F
:1025A0008FBFB24041018280B70700201386C70069
:1025B0005442930700089CCA89679CCAB727014008
:1025C00003A7C780137707F0498F23A6E78003A7E7
:1025D0004182935757008A07B2978C431376F700CE
:1025E00005473317C700D8C92166D0CA90CA9C4393
:1025F00098CB8280B717002083A7078991EB411100
:1026000006C6AA850545EFF00FBBB24041018280A6
:10261000B70700209385C700D841930700081CCB5B
:1026200089671CCBB726014003A6C6809357850057
:10263000137606F0D18F23A6F68003A64182935726
:1026400056008A07AE9703A807009375F600054663
:102650003316B600232AC8002168232A070123283D
:10266000070183A5C68093F505F01375F50F4D8D11
:1026700023A6A6809443D0CA232A07012328070152
:102680009C4390CB8280011106CE22CC26CA4AC838
:102690004EC652C456C25AC02A8B2E8AB28AB689F6
:1026A0001389A181035509001306100F3754010047
:1026B000930584FC3335AB00EF10A05B9384C1819C
:1026C00003D504001306200F930584FC3335AA00BC
:1026D000EF10205A035509001306300F930584FCB0
:1026E00033B5AA00EF10E05803D504001306400FDD
:1026F000930584FC33B5A900EF10A0571305A00281
:10270000C9335A85C53D5685F5351305B002553B8D
:102710005285CD354E85F93D1305C0025D33F2403B
:102720006244D2444249B249224A924A024B05616C
:102730008280011106CE22CC26CA4AC84EC652C497
:1027400056C2B717002083A707898DE303A74182EC
:10275000935757008A07B70600209386C600B6979E
:1027600094433D8B85473397E700D8CA83D6C18110
:10277000FD161384A181035604007D16C206C18292
:102780004206418281450145FD3D83570400814950
:1027900095CB814A09A88509C20993D9090183D734
:1027A000A18163F1F90283D7C1815684EDD703D5A6
:1027B0000181893505044204418083D7C181E368E2
:1027C000F4FED1BFB717002083A707898DE303A7C5
:1027D0004182935757008A07B70600209386C600A8
:1027E000B69794433D8B85473397E70098CAF240EC
:1027F0006244D2444249B249224A924A05618280E7
:10280000011106CE22CC26CA4AC84EC652C456C2B0
:102810002A89B717002083A707898DE303A7418280
:10282000935757008A07B70600209386C600B697CD
:1028300094433D8B85473397E700D8CA83D6C1813F
:10284000FD161384A181035604007D16C206C182C1
:1028500042064182814501453D3583570400814947
:102860008DCB814A09A88509C20993D9090183D76B
:10287000A18163F0F90283D7C1815684EDD74A85DF
:10288000953B05044204418083D7C181E369F4FE8E
:10289000D9BFB717002083A707898DE303A741821B
:1028A000935757008A07B70600209386C600B6974D
:1028B00094433D8B85473397E70098CAF2406244C2
:1028C000D2444249B249224A924A05618280B717EE
:1028D000002023A6A788854763FBA70013070014E1
:1028E000239DE1801307000F239EE1808280130760
:1028F000000F239DE18013070014239EE180828056
:1029000023AAA1808280797106D622D426D24AD009
:102910004ECE52CC56CA5AC85EC662C466C26AC09F
:102920002A892E8BB28A03D5A1811306401FB75482
:102930000100938584FC3335A900EF10803303D563
:10294000C1811306501F938584FC3335AB00EF1013
:102950004032B717002083A70789639E071603A795
:102960004182935757008A07B70600209386C60016
:10297000B69794433D8B85473397E700D8CA83A722
:1029800041819DC70547639AE710920A938A8AE0BE
:10299000D5679387073EBE9A930C8900C20C93DCDF
:1029A0000C01130CFB00420C135C0C01A14BE9A0C1
:1029B00093991A00D6998609938909F4D567938764
:1029C000871BBE99130C6900420C135C0C01930B1E
:1029D0008B00C20B93DB0B01A14C0DA803D5018129
:1029E000EFF05FC185807D141374F40F09C893F76D
:1029F0001400EDD703D58181EFF0DFBFE5B70509FE
:102A0000420913590901850963042C09DE864A86A7
:102A1000DA854A85EFF03FC783C409006684C1BFE9
:102A200003D50181EFF01FBD135D1D007D141374EC
:102A3000F40F09C893771D00E5D703D58181EFF026
:102A40007FBBDDB75E8411A803D50181EFF09FBA8B
:102A500085807D141374F40F09C893F71400EDD723
:102A600003D58181EFF01FB9E5B705094209135974
:102A70000901850A630E9901E2864A86DA854A854C
:102A8000EFF07FC003CD8AFF83C40A005E845DB788
:102A9000B717002083A707898DE303A741829357C7
:102AA00057008A07B70600209386C600B69794435E
:102AB0003D8B85473397E70098CAB2502254925411
:102AC0000259F249624AD24A424BB24B224C924CD2
:102AD000024D4561828083A74181E38B07EC054766
:102AE000E385E7EAD9BF011106CE22CC26CA4AC83F
:102AF0004EC652C456C25AC0AA8A2E8A328B03D5F9
:102B0000A1811306B02437540100930584FC33B52A
:102B1000AA00EF10001603D5C1811306C024930547
:102B200084FC3335AA00EF10C014014441697D19BB
:102B3000854419A8931715003E9506055695D2852C
:102B400042054181C9330504131504014181B3775E
:102B50002401DA970386070083A7418119CAF9DBAC
:102B6000E39E97FE0E055695D28542054181613B55
:102B7000D9BFF2406244D2444249B249224A924A01
:102B8000024B056182805D7186C6A2C4A6C2CAC01E
:102B90004EDE52DC56DA5AD85ED662D466D22A8C21
:102BA000AE8C328BB68B3A84BE8403D5A1811306DA
:102BB000F02B37590100930589FC3335AC00EF1039
:102BC000400B03D5C1811306002C930589FC33B556
:102BD000AC00EF10000A1306102C930589FC333566
:102BE0008000EF1000091306202C930589FC133593
:102BF0009400EF1000081306302C930589FC333540
:102C00009000EF1000071306402C930589FC13B5C4
:102C10007400EF10000602C602C802CA02CC230EDE
:102C20000100330694000906930500026800EFD006
:102C30009F8BA54763E4870649C8B757010003A9DE
:102C4000070383A94703B757010003AA870383AA91
:102C5000C7035286D6864A85CE85EFD0A01F2A8923
:102C6000AE897D141374F40F6DF45A85DE85EFE0A0
:102C700040342A844A85CE85EFE0A0333345A40250
:102C8000EFE0A0404A86CE86EFD0C01C2A86AE86F2
:102C90005A85DE85EFD070012A8BAE8BA686DA8549
:102CA0005E866800EF1040467000E6856285253D2F
:102CB000B640264496440649F259625AD25A425BBB
:102CC000B25B225C925C61618280B757010003A90C
:102CD000070383A9470351BF5D7186C6A2C4A6C27C
:102CE000CAC04EDE52DC56DA5AD85ED662D466D2FC
:102CF0006AD06ECE2A84AE84328DB68DBA8C3E8C6C
:102D0000C28B03D5A1811306902E3759010093057C
:102D100089FC3335A400EF00D07503D5C1811306BB
:102D2000A02E930589FC33B5A400EF009074130620
:102D3000B02E930589FC3335A001EF009073B717CF
:102D4000002083A707898DE303A74182935757008B
:102D50008A07B70600209386C600B69794433D8B3A
:102D600085473397E700D8CA9386FBFFA6961306DC
:102D7000FCFF2296C206C18242064182A6852285B8
:102D8000EFF07F9063890B04014B814A62896E8A60
:102D9000C167FD173EC635A00145EFF0BF850504AC
:102DA000D294630C2401B3D72403CE9783C70700C2
:102DB000E5D73245EFF01F84DDB7850A669B638C4B
:102DC0007A01B3597B03E30A0CFEB3893D038144C6
:102DD0000144EA99C9BFB717002083A707898DE38B
:102DE00003A74182935757008A07B70600209386AE
:102DF000C600B69794433D8B85473397E70098CA42
:102E0000B640264496440649F259625AD25A425B69
:102E1000B25B225C925C025DF24D616182807971ED
:102E200006D622D426D24AD0631F0534B717002015
:102E300023A8078893848182930770029CC013841F
:102E40000182930700061CC01307400623A2E182FB
:102E50001308F00FC167F91785661387F60293868A
:102E6000D60237A64A041306062081450545EFE041
:102E70009FC2C1460146854513057006EFE0AF8B42
:102E8000C146014685458840EFE0EF8AC1460146CC
:102E9000854513054006EFE00F8AC1460546854586
:102EA0000840EFE04F89B717002003A5C788EFF06F
:102EB0001FA26800EF00306785472316F10083D713
:102EC000A1812317F10083D7C1812318F10083A7C3
:102ED00041816383073405476387E734B7370000D0
:102EE000938767AE3ECCB7270000938727733ECE0B
:102EF0006800EF00906583A7018213D757000A0787
:102F0000B70400209384C40026971843BD8B054462
:102F1000B317F4001CCB138981828327090013D7D0
:102F200057000A0726971843BD8BB317F4005CCBF4
:102F30001545EFD0AFFD03270900935757008A07C7
:102F4000A6979C433D8B3314E40080CB1305800788
:102F5000EFD0CFFBB717002083A707898DE303A726
:102F60004182935757008A07B70600209386C60010
:102F7000B69794433D8B85473397E700D8CA4545BC
:102F8000EFF02FD413058007EFD04FF8130560033F
:102F9000EFF02FD3B717002083A7C788638C0728CB
:102FA0000547638DE7280947638FE7281305000A63
:102FB000EFF0CFDD1305A003EFF0AFD01545EFF034
:102FC000EFDC1305200BEFF0CFCF3145EFF00FDC36
:102FD0003145EFF0AFDB0145EFF04FDB1305300378
:102FE000EFF0CFDA13053003EFF04FDA1305700B73
:102FF000EFF02FCD13055003EFF04FD91305B00BB1
:10300000EFF02FCC13059002EFF04FD81305200CF2
:10301000EFF02FCB0545EFF06FD71305300CEFF035
:103020004FCA6545EFF08FD61305400CEFF06FC91E
:1030300013050002EFF08FD51305500CEFF06FC8A9
:103040006945EFF0AFD41305600CEFF08FC77D45F5
:10305000EFF0CFD31305000DEFF0AFC61305400A14
:10306000EFF0CFD21305100AEFF04FD21305000E88
:10307000EFF02FC51305000DEFF04FD12145EFF014
:10308000EFD03945EFF08FD02545EFF02FD0254513
:10309000EFF0CFCF1545EFF06FCF13051003EFF032
:1030A000EFCE13053003EFF06FCE13058004EFF081
:1030B000EFCD5D45EFF08FCD5145EFF02FCD55456C
:1030C000EFF0CFCC13051003EFF04FCC1305400306
:1030D000EFF0CFCB1305100EEFF0AFBE1305000DD0
:1030E000EFF0CFCA2145EFF06FCA3945EFF00FCAB4
:1030F0002545EFF0AFC92545EFF04FC95545EFF035
:10310000EFC813051003EFF06FC813053003EFF09D
:10311000EFC713058004EFF06FC75D45EFF00FC7F1
:103120005145EFF0AFC65545EFF04FC613051003FC
:10313000EFF0CFC513054003EFF04FC513051002A4
:10314000EFF02FB813059002EFF0AFB7B7170020DC
:1031500083A707898DE303A74182935757008A0706
:10316000B70600209386C600B69794433D8B8547EB
:103170003397E70098CAEFF0CFDBB2502254925455
:10318000025945618280B7170020054723A8E788C8
:103190001307700623A4E1821307000623A0E1822F
:1031A0001307400623A2E182C14605468545130563
:1031B000D002EFD05FD8C146054685451305F00221
:1031C000EFD07FD7C1460546854513057002EFD085
:1031D0009FD6C1460546854513057006EFD0BFD57D
:1031E000C1460546854513054006EFD0DFD4C146EC
:1031F0000546854513050006EFD0FFD313040008EC
:1032000093048008C146014685452285EFD0BFD290
:103210000504E31994FE41B999472309F100A14738
:10322000A309F10065B9A1472309F100C147A3092A
:10323000F1006DB10145EFF06FB5ADBB1305000CAA
:10324000EFF0CFB485BB13050007EFF02FB49DB3AB
:10325000B71700200547238AE7888280011106CE30
:10326000A30701009305F1001145EFE01FBE0347DE
:10327000F1009307500A630BF7008345F1001385B3
:1032800001ACEF009040F24005618280138501ACF3
:10329000EF00F034DDB7011106CE22CC26CA4AC8B1
:1032A00002C4930750FA2306F100C557A306F100A4
:1032B00023070100C957A307F10011466C0011450F
:1032C000EFE09FAB130410088944138501ACEF00B5
:1032D000303963EBA4000545EFD04FC37D144204A1
:1032E000418065F4014505A08D473EC4814630000C
:1032F0006C00138501ACEF0090420345D10022051C
:103300008347E1005D8DF2406244D2444249056149
:1033100082801D7186CEA2CCA6CACAC8CEC6D2C42F
:10332000D6C2DAC05EDE62DC66DAB7170020054777
:1033300023ACE7881307C004930620061306401F3A
:1033400081450810EFE08FDD1305800CEFD00FBC36
:10335000B7050020938545040810EFB0C00F014465
:1033600035E93736000013060625B735000093858A
:10337000C5250D45412491473EC495473EC2994716
:103380003EC093089002130880029307600213075F
:10339000B0049306900413068004A9452545EFD098
:1033A0008FBB8546096613060658814537150020F0
:1033B0001305C5ABEFD04FC72285F6406644D6440F
:1033C0004649B649264A964A064BF25B625CD25C95
:1033D00025618280B717002023AC07881166930609
:1033E00026061306C6048965938505581145EFE046
:1033F0003FA885451145EFE05FA01305800CEFD095
:10340000EFB03736000013060625B7350000938568
:10341000C5250D45C522EFE07FE7EFF0DFE7B717E1
:103420000020239EA78802CE130405DD1334140068
:10343000210493172400B704002093844404BE940D
:10344000930950FA1309E00F230C310183D70400CC
:10345000A30CF1000397240093170701C183A183F4
:10346000230DF100A30DE10011462C081145EFE0FA
:10347000BF900945EFD08FA97D14F114E37689FC44
:1034800013041008094A8D499304F00F09A8054553
:10349000EFD0CFA77D144204418063050412138549
:1034A00001ACEF00F01BE374AAFE4ECE814670081B
:1034B0002C08138501ACEF009026834791016386A9
:1034C00097008347A101E39497FC02CEB717002031
:1034D00083D7C789938707DD13B71700370A002002
:1034E00093040A02B7070040BA979D078A07BE9463
:1034F000130A0A02371C0020930BF022130B50FA18
:10350000930A10080DA88D473ECE814670082C08FE
:10351000138501ACEF00B02083479101A207034758
:10352000A101D98F2391F9009307000863E387066F
:10353000F11463079A088357CC8963E7FB0003976C
:103540000400A547E306F7FE230C6101C557A30C51
:10355000F100A6890397040093170701C183A18393
:10356000230DF100A30DE10011462C081145EFE0F9
:10357000BF800144894C138501ACEF00700EE3E479
:10358000ACF80545EFD08F98050442044180E31460
:1035900054FF9306401C3756010013060604B75526
:1035A00001009385850A0145EF00C07401468145FD
:1035B0000145892081451145EFE03F84054455B31D
:1035C000014445B39306701B3756010013060604E9
:1035D000B75501009385450C0145EF00A0710146E8
:1035E00081450145012881451145EFE01F810544D2
:1035F0008DBB8280B717002023A0A78A19C623A6F7
:10360000C18289C923A8B18282803736000013069F
:10361000265FF5B7B73500009385255FE5B7B71787
:10362000024098431367170098C3D843B706FFF8C2
:10363000758FD8C39843B706F7FEFD16758F98C3EC
:103640009843B706FCFFFD16758F98C3D843B7069D
:1036500081FFFD16758FD8C337079F0098C78280FA
:10366000011106CE22CC2A84EFF07FFB02C602C4F1
:10367000371702401C43C166D58F1CC33716024062
:10368000B706020005671C42F58F3EC4B2478507A6
:103690003EC6A24781E7B247E397E7FEB71702406D
:1036A0009C431397E7006359070085473EC42247B0
:1036B00085476305F70001A002C4D5BFB7170240D4
:1036C000D843D8C3D843D8C3D843D8C3D843B70600
:1036D000C1FFFD16758FD8C3B7479508938707407C
:1036E0006308F404B7172707938707E0630AF40811
:1036F000B7E7B80593870780630CF408B7A74A04B7
:1037000093870720630EF408B777DC02938707C01E
:103710006300F40AB7376E01938707606310F40201
:10372000371702405C43B7060500D58F5CC339A04C
:10373000371702405C43C166D58F5CC33717024020
:103740001C43B7060001D58F1CC3B717024098432E
:1037500093166700E3DD06FEB7170240D843719B5E
:10376000D8C3D84313672700D8C3B71602402147F0
:10377000DC42B18BE39EE7FEF24062440561828049
:10378000371702405C43B7063900D58F5CC37DB75D
:10379000371702405C43B7062900D58F5CC379BF59
:1037A000371702405C43B7061D00D58F5CC379B75D
:1037B000371702405C43B7061100D58F5CC3BDBF0D
:1037C000411106C622C42A8423ACA182EFF03FE552
:1037D0002285EFF0FFE8EF00D033B24022444101F0
:1037E0008280130101D92326112623248126232236
:1037F000912623202127232E3125232C41252A8A77
:10380000AE8432893684231701242316012423151C
:10381000012423140124231301242E85EFE0500FEB
:10382000420541852315A124B737002083D7C7035C
:10383000638B073AB737002083A7C7048297B7176F
:10384000002083C7578A93F7F70F6385073AB73786
:10385000002083D7C70363800734B73900209389DA
:10386000C90303A7C90083556124C205C181938799
:103870001500C207C1872313F12452860145029720
:103880002685EFE0F008420541852315A12483D762
:10389000290003C76900B3C7E702C207C187231421
:1038A000F12485048387F4FFEDFF23160124835759
:1038B000C124C207C1830547636FF7048357A1245E
:1038C000C207C18763C907049306F0021306C00547
:1038D0001DA88357C1248507C207C1832316F1247D
:1038E0008357A124FD17C207C1872315F1248357ED
:1038F000C124C207C1836360F7028357A124C207B2
:10390000C18763CA0700FD1483870400E383D7FCE3
:10391000E398C7FC7DBF8357A124C207C18763D04A
:1039200007028357C124C207C18395EB2686B7558A
:10393000010093858510C802EFE0207911A8138655
:103940001400B75501009385C50FC802EFE0E0777A
:1039500023170124B73400209384C40399A8268632
:10396000B75501009385C50FC802EFE00076CDB7CB
:103970008357C124980CBA97238A07EAD44483C793
:10398000740083556124C205C18113871500420765
:1039900041872313E124B385B7025002C205C181D8
:1039A000014582968357E1248507C207C183231707
:1039B000F1248359E124C20993D90901C802EFE037
:1039C000207583578124C207C1873355F502050549
:1039D00063F4A908231601240357C1244207418335
:1039E00083578124C207C187E354F7F8C802EFE088
:1039F00020720357C1248356E12483578124C207D0
:103A0000C187B387D702BA97E364F5F68357C12419
:103A10000356E12403578124420741878356C1247A
:103A20008C0CAE963307C702AE97BA9783C747EFA1
:103A3000238AF6EA8357C1248507C207C183231668
:103A4000F1240357C1244207418383578124C207CD
:103A5000C187E34DF7F829BF4A86B7550100938522
:103A60008511C802EFE06066B73700209387C7036F
:103A700003A8C70003C7770083576124C207C18327
:103A800093861700C206C1862313D124B307F70219
:103A9000D00293950701C18101450298630C04147B
:103AA00023170124B73400209384C40391A08357C3
:103AB000C124980CBA97238A07EAD44483C77400B8
:103AC00083556124C205C1811387150042074187D0
:103AD0002313E124B385B7025002C205C181014519
:103AE00082968357E1248507C207C1832317F124F7
:103AF0000359E1244209135909012285EFE040618D
:103B000083578124C207C1873355F50205056373C6
:103B1000A90E231601240357C1244207418383576A
:103B20008124C207C187E354F7F82285EFE0405EA5
:103B30000357C1248356E12483578124C207C187D8
:103B4000B387D702BA97E364F5F68357C1240356C7
:103B5000E12403578124420741878356C1248C0CFA
:103B6000AE963307C702A297BA9783C70700238A86
:103B7000F6EA8357C1248507C207C1832316F124BF
:103B80000357C1244207418383578124C207C18759
:103B9000E34DF7F829BF1306001081454800EFC038
:103BA0009F94B737002083A747045285829715C09A
:103BB0002287CA862686B75501009385451248009C
:103BC000EFE0A050B737002083A747044800829752
:103BD00015A0CA862686B7550100938505144800AE
:103BE000EFE0A04EC5B7B717002083C7578A93F7F9
:103BF000F70FD5F38320C126032481268324412691
:103C0000032901268329C125032A812513010127C0
:103C10008280411106C6AA850945EFE00F9AB2409D
:103C200041018280011106CE22CC26CA4AC84EC666
:103C3000B2896358C002AE843389C500D56703A436
:103C400007EB930500042285EF20D0457DD985043C
:103C50008385F4FFC205C1812285EF201044E31261
:103C600099FE4E85F2406244D2444249B249056110
:103C7000828041E183C7C18393F7F70FBDCBB717AC
:103C8000002083C7478A91C301A0797106D622D448
:103C900026D24AD04ECE52CCB2892E89B7170020F8
:103CA00005472382E78A812D375A01009304F00FDC
:103CB000416481464E86CA8513050A0EEFF07FB235
:103CC00002C402C602C4A24763F9F400DDB7A247EA
:103CD00085073EC4A247E3EEF4FC02C6B247E3F810
:103CE00087FE0100B24785073EC6B247E3EB87FE79
:103CF000F9BF828001E9B717002083C7578A93F77D
:103D0000F70F91E38280411106C63687B287AE86EF
:103D10003A86BE85375501001305050FEFF07FACDD
:103D2000B2404101828023100500FD572311F500A8
:103D30002312F5002303F500A303F5002324050057
:103D400023260500232805008280B73700209387AB
:103D5000C703035705002390E7000357250023916D
:103D6000E700035745002392E700034765002383DC
:103D7000E70003477500A383E700184598C7584537
:103D8000D8C7184998CBB71700200547A382E78A00
:103D90008280797106D66800EFF0FFF8B74700001F
:103DA000938727C13ECA6800EFF03FFA0966930681
:103DB000B6021306A602F165938505200945EFE0DA
:103DC0002F8BB250456182805C45BE954CC51C4D21
:103DD00063E6F5009D8DE3FFF5FE4CC58280411141
:103DE00006C622C42A8413064005B75501009385F0
:103DF00085153335A000EFF0DFE78347040013F7A4
:103E0000170009450DEB93E717002300F400232664
:103E1000040023280400104C50C85C40054763850B
:103E2000E70291CF09476387E70283470400F99BC4
:103E30002300F4000145B2402244410182808145C3
:103E40000844EFC04FEAD5B7060681450844EFC0E5
:103E50008FE9E1BF0A0681450844EFC0CFE8F1B71A
:103E6000411106C622C42A841306C007B7550100B3
:103E7000938585153335A000EFF0BFDF084C5C4813
:103E80001D8DB240224441018280411106C622C4E8
:103E900026C22A84AE841306A008B7550100938574
:103EA00085153335A000EFF0DFDC8347040013F7FE
:103EB000270005450DEF93E727002300F4005C4839
:103EC00011458DC35C400547638EE70295C70947DE
:103ED0006381E70485452285EFF01FEF5C48FD17FD
:103EE0005CC8014583470400F59B2300F400B24001
:103EF00022449244410182801C445844BA97238052
:103F00009700C9BF58441C440607BA9723909700EE
:103F1000D1B758441C440A07BA9784C365BF797166
:103F200006D622D426D24AD04ECE52CC56CA5AC831
:103F30005EC62A84AE89B284368B13067016375952
:103F40000100930589153335A000EFF09FD21306C9
:103F500080169305891533359000EFF09FD10D4AF7
:103F6000638A09048347040093E747002300F400B1
:103F70002285EFF0FFEE9C40014A6374F50088C093
:103F8000154A832B840103290401B38A2B419040F5
:103F900063E9CA065C4005476385E7048DCF09479E
:103FA0006389E70463180B008346040093F7160047
:103FB000E9CB094A83470400918B2300F400528522
:103FC000B250225492540259F249624AD24A424BA8
:103FD000B24B456182800C44CA954E85EFD000609B
:103FE000D1B706090C440606CA954E85EFD0005F8E
:103FF00055BF0A090C440A06CA954E85EFD0005EEB
:1040000055B75C400547638AE70485CB0947E39BC6
:10401000E7F88A0A931729000C445686BE954E8508
:10402000EFD0C05B90404A96330676410A060C44B6
:1040300033855901EFD0805AB5B70C445686CA95DE
:104040004E85EFD0A05990404A96330676410C44F5
:1040500033855901EFD08058B1B7860A93171900FC
:104060000C445686BE954E85EFD0405790404A96F8
:104070003306764106060C4433855901EFD00056CD
:1040800015B793E716002300F4009C401848BA9730
:104090001CC8184C63E6E700998FE3FFE7FE1CC8D5
:1040A0005C489840BA975CC8F99A2300D40019B7C5
:1040B000011106CE22CC26CA4AC84EC62A84AE8931
:1040C000B284368913068021B75501009385851582
:1040D0003335A000EFF0FFB995C404C423000400F9
:1040E000232234012326040023280400232A240148
:1040F000232C24010145F2406244D2444249B24992
:10410000056182800D45C5BF757106C722C526C3EE
:104110004AC1CEDED2DCD6DADAD8DED62A842E89BF
:10412000B289368A1306301CB76501009385859DD8
:104130003335A000EFF0FFB315C8014681464A852C
:10414000CE85EFB0D045634E0502014681464A85D3
:10415000CE85EFB0F02F1DE9930700032300F40094
:104160001307E002A300E4002301F400BA402A444C
:104170009A440A49F659665AD65A465BB65B496173
:1041800082809307D0022300F40005044A85CE857F
:10419000EFC030622A8BEFC0506F2A86AE864A8508
:1041A000CE85EFC08030930AFAFF93FAFA0F6304CA
:1041B0000A02D684B757010003A9870383A9C7035E
:1041C000930BF00F4A86CE86EFB0D048FD1493F4DF
:1041D000F40FE39974FF8146294611A0BE869387A8
:1041E000160093F7F70F139726008410269733686D
:1041F000CB02232807FD334BCB02E3110BFEB9C3DF
:104200008A0718183E978506B304D400050483274F
:10421000C7FF93D6F741B58F958F93870703A30FF9
:10422000F4FE7117E31494FEE3020AF4EFC0705831
:104230009307E0022380F40001E993070003A380C1
:10424000F4002DB7A284CDB77C0013962A0018087D
:104250003A962947B366E50294C33345E5029107D0
:10426000E39AC7FE138714000A0A7C003E9A890A63
:10427000D69405078327CAFF93D6F741B58F958F4C
:1042800093870703A30FF7FE711AE394E4FEF9BDC9
:104290009357550005473315A700938707048A07EE
:1042A00037E700E0BA9788C38280935755000547E7
:1042B0003315A700938707068A0737E700E0BA9708
:1042C00088C38280B7E700E03E952300B540828036
:1042D00001C9B71700209387878A98437D1798C331
:1042E000B717002083A7878A91E799679387870884
:1042F000739007808280B717002003A5878A01E5A5
:104300009967739007800505B717002023A4A78A33
:104310008280411106C60145EFF09FFBB24041018A
:104320008280411106C6EF809047B717002093871F
:10433000478B19478146056613060680B76501005D
:10434000938585A4374500001305C53CEF90802D6B
:10435000B71700209387078B114781461306007D0E
:10436000B7650100938545A5374500001305C5468F
:10437000EF90402BB71700209387C78A05478146E7
:1043800013060020B7650100938505A63745000098
:104390001305A53FEF900029B71700209387878B5F
:1043A0001547814613060020B76501009385C5A611
:1043B0003745000013058544EF90C0260145EF9076
:1043C000604AEF80303FB24041018280411106C611
:1043D00022C43714002031A0EF80D03D0545EF9076
:1043E000B00EEF80D03B8347448993F7F70FEDD7AA
:1043F000EF605004230A0488C5B7011106CE22CC11
:1044000026CA4AC84EC652C456C2B70A002005A8DA
:10441000EF80F0385C401385C1908297EF8090392F
:104420002104630B2401038751A183470400E3198E
:10443000F7FE5C40F1FFEDB77945EF90F00813848B
:10444000CA5C13098404C5B7411106C6EF30204386
:10445000EF30004FEF309018EF207078EF609059F8
:10446000EF60306D2945EF903006CDB7411106C69B
:1044700022C426C23734002093040405EF30802E76
:10448000EF60F00D07250405EF607047C8C00545D3
:10449000EF909003E5B7411106C6B7170020938748
:1044A000C78B0147814613060008B7650100938555
:1044B000C5A33745000013052532EF90A016EF90F5
:1044C0002047B24041018280B71700203D47238139
:1044D000E78C371700209167938787A92310F78C03
:1044E000828003A701843A95B7B700209387871885
:1044F000636CF500B70702209387078063E8A70085
:1045000023A0A1843A8582807D57EDBF7D57DDBF12
:10451000757106C716C51AC31EC1AADEAEDCB2DAB3
:10452000B6D8BAD6BED4C2D2C6D0F2CEF6CCFACA6B
:10453000FEC882E686E48AE28EE012FE16FC1AFAD3
:104540001EF82AF62EF432F236F03AEE3EEC42EA4B
:1045500046E872E676E47AE27EE09305505237450B
:10456000014013050580EF20A03421E9BA40AA429A
:104570001A438A437655E6555656C6563657A657B9
:1045800016588658764EE64E564FC64F3660A66091
:10459000166186617272E2725273C2733275A275CD
:1045A000127682767267E2675268C268326EA26ED5
:1045B000126F826F49617300203093055052374566
:1045C000014013050580EF2060334DB7757106C7B4
:1045D00016C51AC31EC1AADEAEDCB2DAB6D8BAD688
:1045E000BED4C2D2C6D0F2CEF6CCFACAFEC882E69B
:1045F00086E48AE28EE012FE16FC1AFA1EF82AF60B
:104600002EF432F236F03AEE3EEC42EA46E872E63A
:1046100076E47AE27EE09305505237450040130578
:104620000540EF20E02821E9BA40AA421A438A4314
:104630007655E6555656C6563657A65716588658D6
:10464000764EE64E564FC64F3660A66016618661BE
:104650007272E2725273C2733275A27512768276EA
:104660007267E2675268C268326EA26E126F826F22
:1046700049617300203093055052374500401305BF
:104680000540EF20A0274DB7757106C716C51AC3A0
:104690001EC1AADEAEDCB2DAB6D8BAD6BED4C2D259
:1046A000C6D0F2CEF6CCFACAFEC882E686E48AE22A
:1046B0008EE012FE16FC1AFA1EF82AF62EF432F2DA
:1046C00036F03AEE3EEC42EA46E872E676E47AE20A
:1046D0007EE0930550523755004013050580EF20CA
:1046E000201D21E9BA40AA421A438A437655E6556D
:1046F0005656C6563657A65716588658764EE64E24
:10470000564FC64F3660A660166186617272E272BD
:104710005273C2733275A275127682767267E2673F
:104720005268C268326EA26E126F826F4961730066
:104730002030930550523755004013050580EF2077
:10474000E01B4DB7757106C716C51AC31EC1AADE98
:10475000AEDCB2DAB6D8BAD6BED4C2D2C6D0F2CEA9
:10476000F6CCFACAFEC882E686E48AE28EE012FE41
:1047700016FC1AFA1EF82AF62EF432F236F03AEE49
:104780003EEC42EA46E872E676E47AE27EE09305A1
:10479000505237550040130505C0EF20601121E944
:1047A000BA40AA421A438A437655E6555656C6562B
:1047B0003657A65716588658764EE64E564FC64F71
:1047C0003660A660166186617272E2725273C273BD
:1047D0003275A275127682767267E2675268C26895
:1047E000326EA26E126F826F4961730020309305A2
:1047F000505237550040130505C0EF2020104DB72B
:10480000757106C716C51AC31EC1AADEAEDCB2DAC0
:10481000B6D8BAD6BED4C2D2C6D0F2CEF6CCFACA78
:10482000FEC882E686E48AE28EE012FE16FC1AFAE0
:104830001EF82AF62EF432F236F03AEE3EEC42EA58
:1048400046E872E676E47AE27EE093055052375508
:104850000040EF20E00511C983A7018382979305EB
:10486000505237550040EF206009BA40AA421A431F
:104870008A437655E6555656C6563657A6571658A5
:104880008658764EE64E564FC64F3660A660166185
:1048900086617272E2725273C2733275A2751276B9
:1048A00082767267E2675268C268326EA26E126FD9
:1048B000826F496173002030757106C716C51AC32F
:1048C0001EC1AADEAEDCB2DAB6D8BAD6BED4C2D227
:1048D000C6D0F2CEF6CCFACAFEC882E686E48AE2F8
:1048E0008EE012FE16FC1AFA1EF82AF62EF432F2A8
:1048F00036F03AEE3EEC42EA46E872E676E47AE2D8
:104900007EE0930550523725004013050580EF10D7
:10491000307A21E9BA40AA421A438A437655E655CD
:104920005656C6563657A65716588658764EE64EF1
:10493000564FC64F3660A660166186617272E2728B
:104940005273C2733275A275127682767267E2670D
:104950005268C268326EA26E126F826F4961730034
:104960002030930550523725004013050580EF1085
:10497000F0784DB7757106C716C51AC31EC1AADEF9
:10498000AEDCB2DAB6D8BAD6BED4C2D2C6D0F2CE77
:10499000F6CCFACAFEC882E686E48AE28EE012FE0F
:1049A00016FC1AFA1EF82AF62EF432F236F03AEE17
:1049B0003EEC42EA46E872E676E47AE27EE093056F
:1049C000505237250040130505C0EF10706E01CD21
:1049D00083A74183829793055052372500401305E2
:1049E00005C0EF10B071BA40AA421A438A43765507
:1049F000E6555656C6563657A65716588658764E1A
:104A0000E64E564FC64F3660A660166186617272DA
:104A1000E2725273C2733275A27512768276726731
:104A2000E2675268C268326EA26E126F826F49618D
:104A300073002030757106C716C51AC31EC1AADEE1
:104A4000AEDCB2DAB6D8BAD6BED4C2D2C6D0F2CEB6
:104A5000F6CCFACAFEC882E686E48AE28EE012FE4E
:104A600016FC1AFA1EF82AF62EF432F236F03AEE56
:104A70003EEC42EA46E872E676E47AE27EE09305AE
:104A8000505237250040EF10B06221E9BA40AA42E7
:104A90001A438A437655E6555656C6563657A65794
:104AA00016588658764EE64E564FC64F3660A6606C
:104AB000166186617272E2725273C2733275A275A8
:104AC000127682767267E2675268C268326EA26EB0
:104AD000126F826F49617300203093055052372561
:104AE0000040EF10B0615DB7757106C716C51AC3F7
:104AF0001EC1AADEAEDCB2DAB6D8BAD6BED4C2D2F5
:104B0000C6D0F2CEF6CCFACAFEC882E686E48AE2C5
:104B10008EE012FE16FC1AFA1EF82AF62EF432F275
:104B200036F03AEE3EEC42EA46E872E676E47AE2A5
:104B30007EE0B707055083C70701918B81CF83A71C
:104B4000C1828297370705508347070193F7B70F54
:104B50002308F700BA40AA421A438A437655E6551D
:104B60005656C6563657A65716588658764EE64EAF
:104B7000564FC64F3660A660166186617272E27249
:104B80005273C2733275A275127682767267E267CB
:104B90005268C268326EA26E126F826F49617300F2
:104BA0002030757106C716C51AC31EC1AADEAEDC59
:104BB000B2DAB6D8BAD6BED4C2D2C6D0F2CEF6CC0D
:104BC000FACAFEC882E686E48AE28EE012FE16FC8D
:104BD0001AFA1EF82AF62EF432F236F03AEE3EECCD
:104BE00042EA46E872E676E47AE27EE00545EF00C6
:104BF000D07B85476309F504BA40AA421A438A4329
:104C00007655E6555656C6563657A6571658865800
:104C1000764EE64E564FC64F3660A66016618661E8
:104C20007272E2725273C2733275A2751276827614
:104C30007267E2675268C268326EA26E126F826F4C
:104C40004961730020300545EF00F07775B7757145
:104C500006C716C51AC31EC1AADEAEDCB2DAB6D8C4
:104C6000BAD6BED4C2D2C6D0F2CEF6CCFACAFEC8EC
:104C700082E686E48AE28EE012FE16FC1AFA1EF83C
:104C80002AF62EF432F236F03AEE3EEC42EA46E8EC
:104C900072E676E47AE27EE00945EF00107185471E
:104CA0006309F504BA40AA421A438A437655E65589
:104CB0005656C6563657A65716588658764EE64E5E
:104CC000564FC64F3660A660166186617272E272F8
:104CD0005273C2733275A275127682767267E2677A
:104CE0005268C268326EA26E126F826F49617300A1
:104CF00020300945EF00306D75B7757106C716C5D0
:104D00001AC31EC1AADEAEDCB2DAB6D8BAD6BED499
:104D1000C2D2C6D0F2CEF6CCFACAFEC882E686E48B
:104D20008AE28EE012FE16FC1AFA1EF82AF62EF41B
:104D300032F236F03AEE3EEC42EA46E872E676E4CB
:104D40007AE27EE01145EF00506685476309F5047D
:104D5000BA40AA421A438A437655E6555656C65675
:104D60003657A65716588658764EE64E564FC64FBB
:104D70003660A660166186617272E2725273C27307
:104D80003275A275127682767267E2675268C268DF
:104D9000326EA26E126F826F49617300203011452E
:104DA000EF00706275B7757106C716C51AC31EC1CC
:104DB000AADEAEDCB2DAB6D8BAD6BED4C2D2C6D07B
:104DC000F2CEF6CCFACAFEC882E686E48AE28EE02B
:104DD00012FE16FC1AFA1EF82AF62EF432F236F0FB
:104DE0003AEE3EEC42EA46E872E676E47AE27EE0AB
:104DF0002145EF00905B85476309F504BA40AA425C
:104E00001A438A437655E6555656C6563657A65720
:104E100016588658764EE64E564FC64F3660A660F8
:104E2000166186617272E2725273C2733275A27534
:104E3000127682767267E2675268C268326EA26E3C
:104E4000126F826F4961730020302145EF00B05727
:104E500075B7757106C716C51AC31EC1AADEAEDCCA
:104E6000B2DAB6D8BAD6BED4C2D2C6D0F2CEF6CC5A
:104E7000FACAFEC882E686E48AE28EE012FE16FCDA
:104E80001AFA1EF82AF62EF432F236F03AEE3EEC1A
:104E900042EA46E872E676E47AE27EE04145EF00D7
:104EA000D05085476309F504BA40AA421A438A43A1
:104EB0007655E6555656C6563657A657165886584E
:104EC000764EE64E564FC64F3660A6601661866136
:104ED0007272E2725273C2733275A2751276827662
:104EE0007267E2675268C268326EA26E126F826F9A
:104EF0004961730020304145EF00F04C75B7757182
:104F000006C716C51AC31EC1AADEAEDCB2DAB6D811
:104F1000BAD6BED4C2D2C6D0F2CEF6CCFACAFEC839
:104F200082E686E48AE28EE012FE16FC1AFA1EF889
:104F30002AF62EF432F236F03AEE3EEC42EA46E839
:104F400072E676E47AE27EE013050002EF00F045B7
:104F500085476305F50813050004EF0010458547F4
:104F60006303F50813050008EF003044854763012B
:104F7000F50813050010EF0050438547630FF50651
:104F800013050020EF0070428547630DF506BA4017
:104F9000AA421A438A437655E6555656C6563657A0
:104FA000A65716588658764EE64E564FC64F366070
:104FB000A660166186617272E2725273C2733275B4
:104FC000A275127682767267E2675268C268326EA4
:104FD000A26E126F826F49617300203013050002C8
:104FE000EF00703E8DBF13050004EF00D03D9DBF64
:104FF00013050008EF00303DADBF13050010EF00B2
:10500000903CBDBF13050020EF00F03B49B7757120
:1050100006C716C51AC31EC1AADEAEDCB2DAB6D800
:10502000BAD6BED4C2D2C6D0F2CEF6CCFACAFEC828
:1050300082E686E48AE28EE012FE16FC1AFA1EF878
:105040002AF62EF432F236F03AEE3EEC42EA46E828
:1050500072E676E47AE27EE013050040EF00F03479
:1050600085476309F508056513050580EF00F033F2
:1050700085476306F5080565EF003033854763060D
:10508000F5080965EF00703285476304F50811657E
:10509000EF00B03185476302F5082165EF00F0307D
:1050A00085476300F508BA40AA421A438A437655F9
:1050B000E6555656C6563657A65716588658764E53
:1050C000E64E564FC64F3660A66016618661727214
:1050D000E2725273C2733275A2751276827672676B
:1050E000E2675268C268326EA26E126F826F4961C7
:1050F0007300203013050040EF00F02CADB70565BC
:1051000013050580EF00302CBDB70565EF00B02B0F
:105110008DBF0965EF00302B9DBF1165EF00B02AF0
:10512000ADBF2165EF00302ABDBF757106C716C53A
:105130001AC31EC1AADEAEDCB2DAB6D8BAD6BED465
:10514000C2D2C6D0F2CEF6CCFACAFEC882E686E457
:105150008AE28EE012FE16FC1AFA1EF82AF62EF4E7
:1051600032F236F03AEE3EEC42EA46E872E676E497
:105170007AE27EE0854537350140130505C0EF1022
:10518000E05921E9BA40AA421A438A437655E655C6
:105190005656C6563657A65716588658764EE64E79
:1051A000564FC64F3660A660166186617272E27213
:1051B0005273C2733275A275127682767267E26795
:1051C0005268C268326EA26E126F826F49617300BC
:1051D0002030854537350140130505C0EF10C05517
:1051E00055B7757106C716C51AC31EC1AADEAEDC57
:1051F000B2DAB6D8BAD6BED4C2D2C6D0F2CEF6CCC7
:10520000FACAFEC882E686E48AE28EE012FE16FC46
:105210001AFA1EF82AF62EF432F236F03AEE3EEC86
:1052200042EA46E872E676E47AE27EE085453705B2
:105230000040EF10A04E21E9BA40AA421A438A4327
:105240007655E6555656C6563657A65716588658BA
:10525000764EE64E564FC64F3660A66016618661A2
:105260007272E2725273C2733275A27512768276CE
:105270007267E2675268C268326EA26E126F826F06
:10528000496173002030854537050040EF10C04A62
:1052900065B7757106C716C51AC31EC1AADEAEDC96
:1052A000B2DAB6D8BAD6BED4C2D2C6D0F2CEF6CC16
:1052B000FACAFEC882E686E48AE28EE012FE16FC96
:1052C0001AFA1EF82AF62EF432F236F03AEE3EECD6
:1052D00042EA46E872E676E47AE27EE08545370502
:1052E000004013050540EF10604321E9BA40AA428F
:1052F0001A438A437655E6555656C6563657A6572C
:1053000016588658764EE64E564FC64F3660A66003
:10531000166186617272E2725273C2733275A2753F
:10532000127682767267E2675268C268326EA26E47
:10533000126F826F49617300203085453705004048
:1053400013050540EF10403F55B7757106C716C5E8
:105350001AC31EC1AADEAEDCB2DAB6D8BAD6BED443
:10536000C2D2C6D0F2CEF6CCFACAFEC882E686E435
:105370008AE28EE012FE16FC1AFA1EF82AF62EF4C5
:1053800032F236F03AEE3EEC42EA46E872E676E475
:105390007AE27EE085453715004013050580EF1061
:1053A000E03721E9BA40AA421A438A437655E655C6
:1053B0005656C6563657A65716588658764EE64E57
:1053C000564FC64F3660A660166186617272E272F1
:1053D0005273C2733275A275127682767267E26773
:1053E0005268C268326EA26E126F826F496173009A
:1053F000203085453715004013050580EF10C03378
:1054000055B7757106C716C51AC31EC1AADEAEDC34
:10541000B2DAB6D8BAD6BED4C2D2C6D0F2CEF6CCA4
:10542000FACAFEC882E686E48AE28EE012FE16FC24
:105430001AFA1EF82AF62EF432F236F03AEE3EEC64
:1054400042EA46E872E676E47AE27EE08545371580
:105450000040130505C0EF10602C21E9BA40AA42B4
:105460001A438A437655E6555656C6563657A657BA
:1054700016588658764EE64E564FC64F3660A66092
:10548000166186617272E2725273C2733275A275CE
:10549000127682767267E2675268C268326EA26ED6
:1054A000126F826F496173002030854537150040C7
:1054B000130505C0EF10402855B7757106C716C50E
:1054C0001AC31EC1AADEAEDCB2DAB6D8BAD6BED4D2
:1054D000C2D2C6D0F2CEF6CCFACAFEC882E686E4C4
:1054E0008AE28EE012FE16FC1AFA1EF82AF62EF454
:1054F00032F236F03AEE3EEC42EA46E872E676E404
:105500007AE27EE0854537150040EF10202121E941
:10551000BA40AA421A438A437655E6555656C656AD
:105520003657A65716588658764EE64E564FC64FF3
:105530003660A660166186617272E2725273C2733F
:105540003275A275127682767267E2675268C26817
:10555000326EA26E126F826F4961730020308545F2
:1055600037150040EF10401D65B7757106C716C5A9
:105570001AC31EC1AADEAEDCB2DAB6D8BAD6BED421
:10558000C2D2C6D0F2CEF6CCFACAFEC882E686E413
:105590008AE28EE012FE16FC1AFA1EF82AF62EF4A3
:1055A00032F236F03AEE3EEC42EA46E872E676E453
:1055B0007AE27EE085453715004013050540EF107F
:1055C000E01521E9BA40AA421A438A437655E655C6
:1055D0005656C6563657A65716588658764EE64E35
:1055E000564FC64F3660A660166186617272E272CF
:1055F0005273C2733275A275127682767267E26751
:105600005268C268326EA26E126F826F4961730077
:10561000203085453715004013050540EF10C011B7
:1056200055B7757106C716C51AC31EC1AADEAEDC12
:10563000B2DAB6D8BAD6BED4C2D2C6D0F2CEF6CC82
:10564000FACAFEC882E686E48AE28EE012FE16FC02
:105650001AFA1EF82AF62EF432F236F03AEE3EEC42
:1056600042EA46E872E676E47AE27EE0854537353E
:10567000014013050540EF10600A21E9BA40AA4233
:105680001A438A437655E6555656C6563657A65798
:1056900016588658764EE64E564FC64F3660A66070
:1056A000166186617272E2725273C2733275A275AC
:1056B000127682767267E2675268C268326EA26EB4
:1056C000126F826F49617300203085453735014084
:1056D00013050540EF10400655B7757106C716C58E
:1056E0001AC31EC1AADEAEDCB2DAB6D8BAD6BED4B0
:1056F000C2D2C6D0F2CEF6CCFACAFEC882E686E4A2
:105700008AE28EE012FE16FC1AFA1EF82AF62EF431
:1057100032F236F03AEE3EEC42EA46E872E676E4E1
:105720007AE27EE0854537550140130505C0EF005C
:10573000F07E21E9BA40AA421A438A437655E655DB
:105740005656C6563657A65716588658764EE64EC3
:10575000564FC64F3660A660166186617272E2725D
:105760005273C2733275A275127682767267E267DF
:105770005268C268326EA26E126F826F4961730006
:105780002030854537550140130505C0EF00D07A1C
:1057900055B7757106C716C51AC31EC1AADEAEDCA1
:1057A000B2DAB6D8BAD6BED4C2D2C6D0F2CEF6CC11
:1057B000FACAFEC882E686E48AE28EE012FE16FC91
:1057C0001AFA1EF82AF62EF432F236F03AEE3EECD1
:1057D00042EA46E872E676E47AE27EE085453755AD
:1057E0000140EF00B07321E9BA40AA421A438A434C
:1057F0007655E6555656C6563657A6571658865805
:10580000764EE64E564FC64F3660A66016618661EC
:105810007272E2725273C2733275A2751276827618
:105820007267E2675268C268326EA26E126F826F50
:10583000496173002030854537550140EF00D06F36
:1058400065B773002030757106C716C51AC31EC12F
:10585000AADEAEDCB2DAB6D8BAD6BED4C2D2C6D0D0
:10586000F2CEF6CCFACAFEC882E686E48AE28EE080
:1058700012FE16FC1AFA1EF82AF62EF432F236F050
:105880003AEE3EEC42EA46E872E676E47AE27EE000
:10589000EF10D028AA8537650100130585A7EFC052
:1058A000A07EEF101028AA8537650100130585A892
:1058B000EFC0807DEF105027AA85376501001305E2
:1058C00085A9EFC0607C01A0411106C622C43745FE
:1058D000950813050540EFD0BFEEEFE08FCBEFE06A
:1058E000BFBEEF501063EF10F063EF70E030EF5089
:1058F000204EEFC09FA5EF10707091450565130510
:105900001592EFA01FD4EF109022C14601468545A5
:1059100013054004EFB02FE20545EFD04FD03764B8
:105920000100EFD01F9F01CD130684AAC145014598
:10593000EFD06F9B1305401FEFA05FDDDDB7EFC019
:105940005FDFEFE05FB501A001A097B1FF1F93817A
:10595000616917A101201301E16A17150100130500
:10596000E53197A5FF1F9385E5691386818963FA61
:10597000C5008322050023A0550011059105E3EA27
:10598000C5FE17B5FF1F130565EF975500209385DA
:10599000E57F6377B500232005001105E36DB5FEB3
:1059A000FD42739002BCFD4273904280B7820000BA
:1059B000938202807390023097A2FFFF9382C264A9
:1059C00093E232007390523097020000938202F00B
:1059D0007390123473002030411106C6B72701407E
:1059E00093870740630BF500B73701409387078023
:1059F000630EF500B2404101828085451305002009
:105A00005D25814513050020792DEDB785451305EA
:105A10000040512D8145130500407125E1BF5C41D7
:105A20003707F1E01307F7EF7D8F9C41944DD58F39
:105A3000D44DD58FD441A206D58FD98F5CC11C45DA
:105A400037F7F1FF1307D77F7D8F9C49D445D58F5A
:105A500094458606D58FD98F1CC55C55370710FF36
:105A60007D177D8F83C74501FD1793F7F70FD20789
:105A7000D98F5CD5828091C51C4593E717001CC562
:105A800082801C45F99B1CC582801C4593E78700DA
:105A90001CC5828008450D81058982801C4593E7DD
:105AA00047001CC58280084509810589828099C507
:105AB0001C4537075000D98F1CC582801C4537070D
:105AC000B0FF7D17F98F1CC58280A54763F7B70427
:105AD0008328C500138865FF1317180042979D4758
:105AE000B397E70093C7F7FFB3F71701B396E60044
:105AF000DD8E54C5994763E3C70458597D16931743
:105B000026003E96FD47B397C70093C7F7FFF98F6E
:105B10003396C5005D8E50D9828003280501139706
